:04000000020049327F
:01000B0032C2
:0100130032BA
:01001B0032B2
:0100230032AA
:01002B0032A2
:01003300329A
:01003B003292
:030043000200BBFD
:0C005C007814767F7815767F7816767F12
:0300B800020046FD
:030046000201268E
:2000BB00C021C0E0C0F0C082C083C007C006C005C004C003C002C001C000C0D075D000126C
:2000DB00095CD0D0D000D001D002D003D004D005D006D007D083D082D0F0D0E0D02132C26A
:2000FB00AF750A00750B00781486821204DD7815860A750B007582001204DD750A0078161C
:20011B00860B7582001204DDD2AF22C200C201C202C2945392EF43931075A15575A1AA53CF
:20013B00B9F843B90575A10090000A12056D2097197F0975827FC0071204C7D007DFF4752D
:20015B00E200C2AF75890012380012059575FF0075A15575A1AA43B10175A100A297B39215
:20017B0003200001B3401CB20030000F7814767F1200FA7582D2120228800F7582D2120242
:20019B00B680073000047814767FA296B39203200101B3401CB20130010F7815767F12001A
:2001BB00FA7582D4120228800F7582D41202B680073001047815767FA295B392032002011F
:2001DB00B3401CB20230020F7816767F1200FA9000E212037F800F9000E212042480073079
:2001FB0002047816767F1200FA7814E660037814167815E660037815167816E660037816FA
:0D021B001690000512056D75FF00020177B9
:200A19001201100100000040C016DB2700010102030109022900010100801909040000029B
:200A390003010104092110012101225F000705810310000A0705020310000A05010906A12B
:200A5900018501050719E029E7150025019508750181029501750881039506750815002626
:200A7900FF000507190029E7810005081901290515002501950575019102950175039103D3
:200A9900C0050C0901A1018502150026FF0319002AFF03950475108100C05F0403090418CD
:200AB900036D006D006D006D006D006D002A002A002A003800720012034D006100630072CC
:200AD900006F0050006100640014034300480035003500320078004800490044001A034889
:170AF90000490044002D004B006500790062006F00610072006400FB
:200068009001007401F0900101E4F0900102F0900103F0900104F0900105F0900106F090F3
:200088000107F0900108F09001097402F090010AE4F090010BF090010CF090010DF0900130
:0E00A8000EF090010FF0900110F0900111F099
:20022800AF82BF880040088F06EE2478FE8040BF80004023900101E0FD8F04EC2480F5F000
:2002480005F07401800225E0D5F0FBFC4205900101EDF07E008018EF900B1093FE7001225F
:20026800EE30E70B900101E04402FFF053067F7F03EF2400F582E43401F583E0FDB50601B1
:20028800220FBF090040EA7F03EF2400FCE43401FD8C828D83E0700F8C828D83EEF075138B
:2002A8000990010002059C0FBF090040DC22AF82BF880040088F06EE2478FE8041BF800007
:2002C8004024900101E0FD8F04EC2480F5F005F07401800225E0D5F0FBF4FC5205900101B1
:2002E800EDF07E008018EF900B1093FE700122EE30E70B900101E054FDFFF053067F7F0329
:20030800EF2400FCE43401FD8C828D83E0B506068C828D83E4F00FBF090040E475130990E3
:20032800010002059CAF82C007120228D0078F820202B67F08EF2400F582E43401F583E4B5
:20034800F0DFF275130990010002059CAD82AE83AFF08D828E838FF01209F9FC60188C82DB
:200368000DBD00010EC007C006C00512032DD005D006D00780DC22AE82AF837D018F037C1A
:2003880000ED2409F582E43401F583E0F97A00E9B50624EAB507208D020AEAF93395E0FA34
:2003A800E92409F582EA3401F583E0F97A00E9B50305EAB50401228D0274022AFDBD090060
:2003C80040BF7D01ED2409FBE43401FC8B828C83E0703D8D02EA04F83395E0F9E82409F8A2
:2003E800E93401F988828983E070258E018B828C83E9F00AEA3395E0FCEA2409F582EC3489
:2004080001F5838F04ECF075130990010902059C8D0474022CFDBD090040A9228582088589
:2004280083097D01AB097C00ED2409F9E43401FA89828A83E0F87F00B5083AEFB509368D7E
:2004480007EF04F83395E0FEE82409F582EE3401F583E0F87E00B5031CEEB5041889828A57
:2004680083E4F00FEF3395E0FEEF2409F582EE3401F583E4F08D0774022FFDBD090040A893
:2004880075130990010902059CAE82AF83C007C00612037FD006D0078E828F830204247F8B
:1F04A80008EF2409F582E43401F583E4F0DFF275130990010902059C900052E0F582223B
:200B100000000000000000002A2B2800000000000000000000000000000000000000000048
:200B30002C9EB4A0A1A2A434A6A7A5AE362D3738271E1F20212223242526B333B62EB7B868
:200B50009F8485868788898A8B8C8D8E8F909192939495969798999A9B9C9D2F3130A3AD59
:200B7000350405060708090A0B0C0D0E0F101112131415161718191A1B1C1DAFB1B0B500BE
:2004C7007F08C58233D2949294000000000000C2940000DFEF22AF82850A82C0071204C75C
:2004E700D0078F821204C7850B820204C7E582FF23235403FE53073FAD0C8DF005F0EF801D
:200507000225E0D5F0FBFF8DF005F0743F800225E0D5F0FB8F04C39CFDBE0002800ABE01AA
:2005270002800FBE022080148F0A750B008D820204DD8D0A8F0B7582000204DD750A008D8D
:070547000B8F820204DD228C
:20054E00AE82AF83EE4F6016E5A104F5A1E5A104F5A1E5A104F5A11EBEFF011F80E622AEE7
:1D056E0082AF83EE4F60159003E8C007C00612054ED006D0071EBEFF011F80E7226C
:09058C00C007AF82DFFED0072298
:0200B600C20482
:200595001209DA75D30022AE82AF832004FD7D00C3ED9513501AED2440FBE43400FCED2EAA
:2005B500F582E43FF583E0FA8B828C83F00D80E08513D3D20453D2FC2275EE4075EF0075C1
:2005D500E45275E50075D21275D41075EA4075EB082275D21275D410C2042275D30074FC49
:0A05F50055D24402F5D2C2042222BE
:2005FF00C007AF8205A290000015A2851182851283E493A3A5DFFAD00722AFDBBF08028060
:20061F00030208D5900007E0FE7F00900006E0FD7C004FF50DEC4EF50E900001E0F50F9063
:20063F000000E0FE546060057FFF0208D7E50F24F450030208D1E50F240B83F582E50F24D6
:20065F001083F583E473B3A1D112D1707DD17D98D7D70807080808070608070708089000A6
:20067F0003E0FEBE01028012BE02028017BE0302801CBE2202806902071775111975120A54
:20069F007F12807675112B75120A7F29806C900002E0FE24FB4038EE2E9006BC73800880EE
:2006BF000E8014801A80207511B475120A80267511B875120A801E7511D075120A8016756F
:2006DF0011E275120A800E7511F675120A80067511E275120A851182851283E493FF801A1B
:2006FF00900002E0700E75115475120A900AB3E493FF80067FFF80027FFFBFFF030208D717
:20071F008F057E00C3ED950DEE950E50048D0D8E0EAD0DAE0EC3ED9440EE940092054006E2
:20073F007D407E008004AD0DAE0E8D078F821205FF8F057E00AB0DAC0EEBC39DFBEC9EFC5A
:20075F008B0D8C0EEF2511F511E43512F5120208D7900002E0FE8E0D750E000208D790000B
:20077F0000E510F0AD0DAE0EC3ED9401EE940050030208D77F010208D7900002E0F510022A
:20079F0008D7900000E0541F702F900003E0FD7E00900002E0FC7B004206EB4205BE0114B5
:2007BF00BD0011900A32E493FE30E5030208D77FFF0208D77FFF0208D7900000E0FE53068D
:2007DF001F7D00BE0228BD0025900004E0FEBE02028005BE8113800653D4730208D774BC58
:2007FF0055D24402F5D20208D77FFF0208D77FFF0208D7900000E0541F702F900003E0FD15
:20081F007E00900002E0FC7B004206EB4205BE0114BD0011900A32E493FE30E5030208D7FD
:20083F007FFF0208D77FFF0208D7900000E0FE53061F7D00BE0259BD0056900003E0FD7E5E
:20085F0000900002E0FC7B004206EB4205EE4D703B900005E0FD7E00900004E0FC7B004213
:20087F0006EB4205BE0205BD00028008BE8119BD0016800A747F55D4440CF5D4803A74BF3E
:20089F0055D24403F5D280307FFF802C7FFF80287FFF8024900000E4F0900001F0AD0DAE95
:2008BF000EC3ED9402EE940040047F02800AAF0D80067FFF80027FFFBFFF07750FFF75DC9B
:2008DF00CF22EF24BF40068FDD75DCC02275DD0075DCC0227405B50F0280467406B50F4F3A
:2008FF00AE0DAF0EC3EE9440EF9400920640067E407F008004AE0DAF0E8E821205FF8E0589
:20091F007F00AB0DAC0EEBC39DFBEC9FFC8B0D8C0EEE2511F511E43512F5128EDD63DC4082
:20093F0022E5E35480FFE50D4FF5E375DC022275DD0075DC022275DD0043DC022230D95C8C
:20095F00E5D9540FFFADD95305307E00BD0005BE00028018BD1005BE0002803EBD2005BEC2
:20097F000002801CBD3033BE00308028BF00028005BF02268005120955801F1205FE801A94
:20099F00BF00028005BF011280051208F3800B1205F08006BF0003120619C2D930D80F755C
:2009BF00DC021205E775E300C2DAC2D9C2D810DA0122E5DA20E20375D8FF2275E22975D10E
:1A09DF0081E4F5ECF5ED75DC021205CE43E10743D81FD2EAD2AF75DD002288
:06005600E478FFF6D8FD7E
:0D004900758121120A15E582600302004650
:1C09F90020F71430F6148883A88220F507E6A88375830022E280F7E49322E0220D
:040A150075820022C4
:00000001FF
